:100000000C942C010C94690F0C94420F0C941B0F50
:100010000C94F40E0C9454010C9454010C94CD0ED9
:100020000C9454010C9454010C94E20B0C94510C5C
:100030000C9454010C9454010C9454010C945401EC
:100040000C9454010C9454010C9454010C945401DC
:100050000C9454010C9454010C9454010C94830E90
:100060000C9454010C9454010C9454010C945401BC
:100070000C9454010C9454010C9454010C945401AC
:100080000C9454010C9454010C9454010C9454019C
:100090000C9454010C9454010C9454010C9454018C
:1000A0000C9454010C9454010C9454010000000071
:1000B000000000002A2B28000000000000000000C3
:1000C0000000000000000000000000002C9EB4A012
:1000D000A1A2A434A6A7A5AE362D3738271E1F200F
:1000E000212223242526B333B62EB7B89F848586D4
:1000F0008788898A8B8C8D8E8F9091929394959618
:100100009798999A9B9C9D2F3130A3AD3504050695
:100110000708090A0B0C0D0E0F10111213141516F7
:100120001718191A1B1C1DAFB1B0B5000000000054
:10013000240027002A002D003000000000002300CA
:10014000260029002C002F00080B000202020000EC
:10015000090400000102020000052400100105242A
:10016000010101042402060524060001070581039C
:1001700010004009040100020A0000000705020205
:100180004000000705830240000004030904120137
:100190000002EF0201404F1B069200010102030121
:1001A000537061726B46756E00537061726B467569
:1001B0006E2050726F204D6963726F000000000066
:1001C000250028002B002E00310004040404040341
:1001D00004050202020204030202020206060606E7
:1001E000060604040202020404040802011040800E
:1001F000401020408040800802040180402010020E
:1002000001108010204040200000000200090F0073
:1002100000030401000C00000000000000000000CA
:1002200000000000000005010906A1018502050784
:1002300019E029E71500250175019508810295014E
:1002400075088103950675081500257305071900C3
:1002500029738100C000900F11241FBECFEFDAE098
:10026000DEBFCDBF11E0A0E0B1E0E4EBFDE202C0F3
:1002700005900D92AE3DB107D9F723E0AEEDB1E0A8
:1002800001C01D92A237B207E1F711E0CCE2D1E044
:1002900004C02197FE010E94A415CB32D107C9F7F3
:1002A0000E9485110C94D8160C940000FC018091DA
:1002B000990290919A028837910518F580919702DA
:1002C00090919802019668E270E00E947C159C0172
:1002D000220F331F820F931F2081FC01E35EFD4F2D
:1002E0002083909398028093970280919902909135
:1002F0009A02019690939A028093990290E080E08E
:1003000008958FEF9FEF0895FC01809199029091DD
:100310009A02892B19F1809195029091960201968B
:1003200068E270E00E947C159C01220F331F820F4F
:10033000931FDC01A35EBD4F2C9120839093960206
:10034000809395028091990290919A0201979093DF
:100350009A028093990290E080E008958FEF9FEFDA
:100360000895CF92DF92EF92FF920F931F93CF9356
:10037000DF93D901E8016A01F9014217530714F02C
:100380006901FA01882309F440C0CB016C157D0591
:100390000CF4C6019F018E179F070CF49C01A41753
:1003A000B50734F4CF01821B930B9C012C0D3D1D2E
:1003B0000D2C000CEE08FF08032E000C440B550B0F
:1003C0002C193D094E095F09AEEFBFEF0E944015A1
:1003D0009F01FF0F440B550B2C193D094E095F0976
:1003E0000E942115DA01C9018F5F9F47A109B10958
:1003F0008883998382E090E0DF91CF911F910F91E4
:10040000FF90EF90DF90CF90089590E080E0F4CFE0
:10041000FC0180911C02882311F13FB7F89482E01F
:100420008093E9002091F200822F90E018161906BF
:1004300014F481E090E0882339F0289844E6409352
:100440001B024091F1004083222339F02091F200F9
:10045000211103C02BE62093E8003FBF08958FEFE2
:100460009FEF08959093320180933101E9E6F0E027
:1004700080818F7380688083EB9A089508954091FE
:100480000E0250910F0220910C0230910D02421782
:100490005307B4F49091E8009570E1F39091E8006F
:1004A00092FD19C08093F10080910E0290910F028D
:1004B00001968F739927892B19F48EEF8093E800AA
:1004C00080910E0290910F02019690930F028093FB
:1004D0000E0281E0089580E00895EF92FF920F935D
:1004E0001F93CF93DF93F82E192FE62E042F81E070
:1004F000860F880F0E943F0283E00E943F02CF2DAB
:10050000D12FEC0EFD2EF11CCE15DF05B9F007FF43
:1005100013C0FE0184910E943F02182F80E00E94C8
:100520003F02812321968111EFCFDF91CF911F915F
:100530000F91FF90EF9008958881EDCF81E0F5CF86
:10054000DF92EF92FF920F931F93CF93DF93D82EFA
:100550008A01EB017B01E40EF51ECE15DF0559F093
:10056000D7FE12C0FE0184910E943F0221968111A4
:10057000F4CF0FEF1FEFC801DF91CF911F910F91C3
:10058000FF90EF90DF9008958881EECF2FB7F89419
:1005900087708093E9009091E800892F807295FF21
:1005A00004C09091F20080E4891B2FBF0895615030
:1005B00030F02091F100FC0120830196F8CF2898BB
:1005C00084E680931B0208958091040281110DC07E
:1005D00082E08093000284E0809301021092030283
:1005E0001092020281E08093040280E092E008957C
:1005F0000F931F93CF93DF931F92CDB7DEB782E0A7
:10060000898342E450E068E471E080E80E94A0023F
:100610000E94E402DC0112960D911C910115110556
:1006200089F0D801ED91FC910280F381E02DBE01AB
:100630006F5F7F4FC801099597FD04C0F8010085E1
:100640001185ECCF89810F90DF91CF911F910F9190
:100650000895CF93DF93FC01DB01818114963C91D7
:100660001497682F630F7727771F683071059CF503
:10067000C281D381209739F5B383A28390811296EA
:100680009C93129713968C93139715968C911597AC
:10069000890F808390E080E0831708F52181C22FC5
:1006A000D0E0BE0160507F4F16964D915C91179738
:1006B000480F591FEA014881EB0148832F5F2183CE
:1006C0000196EACFEA014885598541155105D1F7D0
:1006D000B987A887D3CF80E0DF91CF91089581E0DB
:1006E000FBCFCF93DF931F92CDB7DEB76983DC01D9
:1006F000ED91FC910280F381E02D41E050E0BE01DC
:100700006F5F7F4F09950F90DF91CF91089583E040
:100710008093E9008091F200882319F08AE38093A6
:10072000E800089583E00E94C60290E00895CF9308
:10073000DF931F92CDB7DEB7FC018485958597FDC9
:1007400008C02FEF3FEF358724870F90DF91CF91BF
:100750000895CE0101960E940802019719F489813B
:1007600090E0F3CF8FEF9FEFF0CF0F931F93CF93D6
:10077000DF931F92CDB7DEB78C01FC018485958590
:1007800097FF0BC0CE0101960E940802019771F4F9
:10079000898190E0F80195878487F80184859585A3
:1007A0000F90DF91CF911F910F9108958FEF9FEFE1
:1007B000F1CFFC018485958597FD0BC09FB7F89418
:1007C00082E08093E9008091F2009FBF90E0019663
:1007D00008959FB7F89482E08093E9008091F20039
:1007E0009FBF90E0089581508F3008F047C0E82FF8
:1007F000F0E0E350FC4F0C94A4151A041E040C0402
:10080000120416043E043E043E04210427042B0473
:100810002F0435043E043904809180008F77809343
:1008200080000895809180008F7DF9CF80918000B5
:10083000877FF5CF84B58F7784BD089584B58F7D8C
:10084000FBCF809190008F778093900008958091E6
:1008500090008F7DF9CF80919000877FF5CF8091B8
:10086000C0008F778093C00008958091C0008F7D75
:10087000F9CF8091C200877F8093C2000895CF9303
:10088000DF93282F30E0F901E85FFD4F8491F901F3
:10089000E751FE4FD491F901E653FE4FC491CC23AA
:1008A00091F081110E94F303EC2FF0E0EE0FFF1F97
:1008B000E454FE4FA591B4918FB7F894EC91D09584
:1008C000DE23DC938FBFDF91CF910895CF93DF9329
:1008D000282F30E0F901E85FFD4F8491F901E751DD
:1008E000FE4FD491F901E653FE4FC491CC23A1F001
:1008F00081110E94F303EC2FF0E0EE0FFF1FE65C86
:10090000FE4FA591B491EC91ED2381E090E009F4C4
:1009100080E0DF91CF91089580E090E0FACFCF930F
:10092000DF9390E0FC01E751FE4F249186539E4FE8
:10093000FC0184918823D1F090E0880F991FFC017D
:10094000E45DFE4FA591B491FC01E454FE4FC591C6
:10095000D49161110EC09FB7F8948C91E22FE0956D
:100960008E238C932881E223E8839FBFDF91CF9170
:1009700008958FB7F894EC91E22BEC938FBFF6CFEC
:10098000DF92EF92FF920F931F93CF93DF9300D0EC
:10099000CDB7DEB7CE0101960E948401CE0102964A
:1009A0000E94840197E7E92E91E0F92E01E010E022
:1009B000F701D080F2E0EF0EF11C898190E0002E6B
:1009C00002C0959587950A94E2F780FF46C060E0E3
:1009D0008D2D0E948F040F5F1F4F0730110541F7C7
:1009E00083E8E82E81E0F82E01E010E0F701D080E6
:1009F000F2E0EF0EF11C8A8190E0002E02C0959586
:100A000087950A94E2F780FF30C060E08D2D0E9448
:100A10008F040F5F1F4F0730110541F780911602B9
:100A2000909117020197909317028093160260E04D
:100A300082E10E948F0460911602709117028BE987
:100A400092E00E9471030F900F90DF91CF911F9160
:100A50000F91FF90EF90DF90089561E08D2D0E943F
:100A60008F048D2D0E943F04B6CF61E08D2D0E9432
:100A70008F048D2D0E943F04CCCF3FB7F894809116
:100A8000FC019091FD01A091FE01B091FF0126B5FE
:100A9000A89B05C02F3F19F00196A11DB11D3FBFB6
:100AA000BA2FA92F982F8827BC01CD01620F711D85
:100AB000811D911D42E0660F771F881F991F4A957F
:100AC000D1F708958F929F92AF92BF92CF92DF920B
:100AD000EF92FF924B015C010E943D056B017C018E
:100AE0000E943D056C197D098E099F09683E73407F
:100AF00081059105A8F321E0821A9108A108B108A7
:100B000088EEC80E83E0D81EE11CF11C811491040C
:100B1000A104B10429F7FF90EF90DF90CF90BF9030
:100B2000AF909F908F9008957F928F929F92AF92F7
:100B3000BF92CF92DF92EF92FF920F931F93CF93CA
:100B4000DF93C82E8B017A0180911C02811110C0A5
:100B50008FEF9FEFDF91CF911F910F91FF90EF905B
:100B6000DF90CF90BF90AF909F908F907F9008952F
:100B70008091120280FF05C08091E0008260809326
:100B8000E000CE2DDF2DD12C8AEFB82E8C2D877072
:100B9000982E8C2D8072882E8C2D8074782E9AE35E
:100BA000A92E209719F4DD2009F452C08C2D0E9443
:100BB000C60281110AC0BA94BB2051F261E070E014
:100BC00080E090E00E946205ECCF8C171D0611F0CA
:100BD0000CF08C2F9FB7F8949092E9002091E800D8
:100BE00025FD02C09FBFDDCF282F30E0C21BD30BF5
:100BF000882029F08150A0F01092F100FBCFF8017D
:100C0000C7FC0AC0815050F041914093F100FACFE7
:100C100044914093F10031968150D0F7020F131F99
:100C2000DD2021F0A092E800D12CDCCF8091E800FB
:100C300085FD07C0A092E800DD24D394209791F2AF
:100C4000F3CF209779F6772069F2A092E800CACF17
:100C50005D9884E680931102C7017CCFEF92FF92EA
:100C60001F93CF93DF931F92CDB7DEB77C018091A6
:100C7000FC0281112CC011E01093EF021093F002DE
:100C800085EF92E09093F2028093F1021092F402C9
:100C90001092F30285EA91E09093EC028093EB02CC
:100CA0001092F7021092F6021092F9021092F802D6
:100CB0001093FA021093FB0281EC8093F5020E94DC
:100CC000E4026BEE72E00E9429031093FC0282E0C2
:100CD000898341E050E0BE016F5F7F4F8091EE025B
:100CE0000E94940597FD08C08091EE0248E050E014
:100CF000B70180640E9494050F90DF91CF911F91FE
:100D0000FF90EF900895CF93DF93EC018091120153
:100D1000882331F083E00E9494051816190634F0F8
:100D200081E090E09B838A8380E090E0DF91CF9127
:100D30000895DC01FB0191818081813A31F49D7F2E
:100D400081E0913009F080E008958132E1F79B3035
:100D500029F482811F968C9381E008959A3099F747
:100D6000828150968C93F8CFFC014281FB01248153
:100D700035814217130611F40C94990680E008950A
:100D8000DC01FB0188E4808389E4818384E482833D
:100D90001D969C911D979F709F5B93831D968D91CF
:100DA0009C9124E0969587952A95E1F78F708F5B4B
:100DB000848385E00895EF92FF920F931F93CF9362
:100DC000DF93FB012081213889F52381223271F5DF
:100DD000DC0112964C91248135814217130631F5BE
:100DE0008C01FC01C385D485F12CE12C209791F076
:100DF0004C815D816A817B818E81811180E80E94B6
:100E0000A0028F3F980759F0E80EF91E0990D8818B
:100E1000C02DECCF81E0D8011F968C93C701DF91E4
:100E2000CF911F910F91FF90EF90089590E080E097
:100E3000F6CFCF93DF93CDB7DEB769970FB6F894AF
:100E4000DEBF0FBECDBFFC01DB018C918F5F8C93A9
:100E50009E012D5F3F4F8DE0D9011D928A95E9F7E4
:100E600029E0298384E08A8391E09D8383E08E8357
:100E70002A8721E22B879C879D879F8722E2288BE8
:100E800027E02B8B25E02C8B8E8B20E430E0388FF5
:100E90002F8B998F82818B8395858685998B8A8B01
:100EA000838180688D8B49E150E0BE016F5F7F4F89
:100EB00080E00E94A00269960FB6F894DEBF0FBED4
:100EC000CDBFDF91CF910895CF938091EF01811134
:100ED0002CC0C1E0C093E201C093E30188EE91E031
:100EE0009093E5018093E4011092E7011092E601EE
:100EF0008FE391E09093DF018093DE011092EA018D
:100F00001092E9011092EC011092EB01C093ED01F7
:100F1000C093EE0181EC8093E8010E94E4026EED43
:100F200071E00E942903C093EF018EED91E0CF9113
:100F30000895FC014281FB0124813581421713068B
:100F400011F40C94990680E00895EF92FF920F93AC
:100F50001F93CF93DF93FB012081213871F523810B
:100F6000223259F5DC0112964C91248135814217C9
:100F7000130619F5EC010B851C85F12CE12C0115EC
:100F8000110589F0F801448155816281738180E8FF
:100F90000E94A0028F3F980749F0E80EF91ED80181
:100FA0000D911C91ECCF81E08F87C701DF91CF912C
:100FB0001F910F91FF90EF90089590E080E0F6CFA1
:100FC000CF93DF93CDB7DEB769970FB6F894DEBF46
:100FD0000FBECDBFFC01DB018C918F5F8C939E0116
:100FE0002D5F3F4F8DE0D9011D928A95E9F729E0E9
:100FF000298384E08A8391E09D8383E08E832A871E
:1010000021E22B879C879D879F8722E2288B27E000
:101010002B8B25E02C8B8E8B20E430E0388F2F8BB0
:10102000998F82818B8395858685998B8A8B838125
:1010300080688D8B49E150E0BE016F5F7F4F80E09B
:101040000E94A00269960FB6F894DEBF0FBECDBF16
:10105000DF91CF910895CF92DF92EF92FF920F939D
:101060001F93CF93DF936C01EB017B01E40EF51E20
:1010700010E000E0CE15DF0581F069916D30D1F30D
:10108000D601ED91FC910190F081E02DC60109950A
:10109000892B19F00F5F1F4FEDCFC801DF91CF9162
:1010A0001F910F91FF90EF90DF90CF900895DC019A
:1010B0006838A0F06858FD0186E0662321F096812B
:1010C000961301C01682815031968111F6CFCD0161
:1010D00004960E942E0681E090E00895E62FF0E04D
:1010E00067FF12C0E058F10981E090E001C0880F6D
:1010F000EA95EAF7809514969C91149789231496A3
:101100008C93149760E0D7CFE455FF4F649166232A
:1011100059F067FFD0CF14968C9114978D7F149659
:101120008C9314976F77C7CF90E080E00895DC012F
:10113000683888F1685816968C911697861721F1B1
:1011400017968C9117978617F9F018968C91189727
:101150008617D1F019968C9119978617A9F01A96CF
:101160008C911A97861781F01B968C911B97861786
:1011700059F0FD01369690E080E02191211139C0AF
:101180008A0F9B1FFC016683CD0104960E942E06E8
:1011900081E090E00895E62FF0E067FF11C0E0588D
:1011A000F10921E030E001C0220FEA95EAF7149638
:1011B0008C911497822B14968C93149760E0BBCF7C
:1011C000E455FF4F6491611109C081E090E01396EE
:1011D0009C938E93129790E080E0089567FFABCFC9
:1011E00014968C911497826014968C9314976F7751
:1011F000A2CF01968630910509F0BFCFE6CFEF92DE
:10120000FF921F93CF93DF93EC01162F0E94970854
:101210007C01612FCE010E945708C7019927DF91F9
:10122000CF911F91FF90EF900895089590E080E096
:10123000089560E082E00E948F0460E083E00E94F5
:101240008F0460E084E00E948F0460E085E00E94EB
:101250008F0460E086E00E948F0460E087E00E94D7
:101260008F0460E088E00E948F0460E089E00E94C3
:101270008F0460E08AE00E948F0460E08EE00E94AC
:101280008F0460E08FE00E948F0460E080E10E94A4
:101290008F0460E082E10E948F0460E083E10E949D
:1012A0008F0460E084E10E948F0460E085E10E9489
:1012B0008F04E3E1F1E081E090E08193919321E0FC
:1012C000EB32F207D1F70895FC0101900020E9F715
:1012D0003197AF01481B590BBC018BE992E00C948C
:1012E0008306CF93DF930E946409EC0189EB91E0C0
:1012F0000E9464098C0F9D1FDF91CF9108958F92FA
:101300009F92AF92BF92EF92FF920F931F93CF9352
:10131000DF9300D0CDB7DEB7198281E08A8327E75B
:10132000E22E21E0F22E01E010E0812C912C5401FC
:101330008394F7018081F2E0EF0EF11C0E946604B5
:10134000B501A401002E04C0440F551F661F771F6E
:101350000A94D2F72981892B09F44DC0242B2983C3
:101360000F5F1F4F0730110521F783E8E82E81E05A
:10137000F82E01E010E0812C912C54018394F701A8
:101380008081F2E0EF0EF11C0E946604B501A40119
:10139000002E04C0440F551F661F771F0A94D2F712
:1013A0002A81892B59F1242B2A830F5F1F4F073085
:1013B000110529F7CE0101960E945601892B21F0D3
:1013C0008CEB91E00E947109CE0102960E945601B9
:1013D000892B21F08CEB91E00E9471090F900F9006
:1013E000DF91CF911F910F91FF90EF90BF90AF9041
:1013F0009F908F90089540952423B1CF409524234A
:10140000D3CF8F929F92AF92BF92CF92DF92EF9203
:10141000FF920F931F93CF93DF93CDB7DEB7ADB697
:10142000BEB680916D032DB73EB7281B31090FB6AC
:10143000F8943EBF0FBE2DBF8DB79EB701966C01CD
:10144000E0903C03F12C8091380390913903D60150
:10145000FC019F01281B390B2E153F051CF421911F
:101460002D93F7CF80913D03882359F18091340368
:101470009091350328E097FD09C068E671E00E946D
:1014800090156DE270E00E949015262F8091360332
:101490009091370368E097FD08C068E671E00E940C
:1014A00090156DE270E00E949015F601EE0DFF1DA3
:1014B00090E1699FB0011124262B2083F70131961A
:1014C0007F0186010E0D1F1D2091420330914303C1
:1014D000409140035091410360911E0370911F039E
:1014E00080913E0381700E94B101E80EF91E8601D1
:1014F0000E0D1F1D20914603309147034091440378
:1015000050914503609120037091210380913E0327
:10151000869581700E94B101E80EF91E86010E0DBC
:101520001F1D20914A0330914B0340914803509175
:101530004903609122037091230380913E0382FB53
:10154000882780F90E94B101E80EF91E86010E0D70
:101550001F1D20914E0330914F0340914C03509139
:101560004D03609124037091250380913E0383FB1A
:10157000882780F90E94B101E80EF91E86010E0D40
:101580001F1D2091520330915303409150035091FD
:101590005103609126037091270380913E03829549
:1015A00081700E94B101E80EF91E86010E0D1F1D0B
:1015B00020915603309157034091540350915503A5
:1015C000609128037091290380913E0385FB882751
:1015D00080F90E94B101E80EF91E86010E0D1F1D53
:1015E00020915A0330915B03409158035091590365
:1015F00060912C0370912D0380913F0381700E94B4
:10160000B101E80EF91E86010E0D1F1D20915E032B
:1016100030915F0340915C0350915D0360912A0318
:1016200070912B0380913F03869581700E94B101D8
:10163000E80EF91E86010E0D1F1D209162033091E8
:101640006303409160035091610360912E03709198
:101650002F0380913F0382FB882780F90E94B1010C
:10166000E80EF91E86010E0D1F1D209166033091B4
:10167000670340916403509165036091300370915A
:10168000310380913F0383FB882780F90E94B101D9
:101690008E0D9F1D8601080F191F20916A0330913E
:1016A0006B0340916803509169036091320370911C
:1016B000330380913F03829581700E94B1010E94A3
:1016C00064074C0140916D0380916C0350E07A01F6
:1016D000FFEFEF1AFF0A2DB73EB72E193F090FB6DD
:1016E000F8943EBF0FBE2DBF0DB71EB70F5F1F4F43
:1016F000EDB7FEB78183B601C80101960E94CF16EF
:10170000F4018381A701B80180640E9494050FB69B
:10171000F894BEBE0FBEADBEDF91CF911F910F9169
:10172000FF90EF90DF90CF90BF90AF909F908F9001
:101730000895CF93DF93EC01E297C430D105F8F41C
:101740008091190290911A02C817D90711F1D0930C
:101750001A02C09319020E941909C230D10539F446
:1017600081E080933A03DF91CF910C94010A239793
:1017700081F48DEC91E0DF91CF910C946409843673
:10178000910539F465E68BE992E0DF91CF910C94F5
:101790007103DF91CF910895CF93DF93D0E0C0E044
:1017A0008BE992E00E94D903C817D90744F48BE96A
:1017B00092E00E9497030E94990B2196F1CFDF914E
:1017C000CF9108951F920F920FB60F9211248F930D
:1017D0009F938091E1009091E100937F9093E100CD
:1017E00083FF0FC01092E90091E09093EB001092FC
:1017F000EC0092E39093ED0010921C0298E090931D
:10180000F00082FF22C093E09093E9009091F200F3
:10181000992319F09AE39093E8009091110299238B
:1018200041F090911102915090931102911101C0D9
:101830005D9A90911B02992341F090911B02915067
:1018400090931B02911101C0289A84FF18C08091C7
:10185000E2008E7E81608093E2008091E1008F7EC5
:101860008093E100809112028E7E8061809312024B
:101870009F918F910F900FBE0F901F90189580FF32
:10188000F7CF8091E2008E7E80618093E2008091AC
:10189000E1008E7E8093E100809112028E7E816055
:1018A000E5CF1F920F920FB60F921124CF92DF92C5
:1018B000EF92FF920F931F932F933F934F935F935A
:1018C0006F937F938F939F93AF93BF93EF93FF9308
:1018D000CF93DF93CDB7DEB76C97DEBFCDBF10924D
:1018E000E9008091E80083FF25C068E0CE014596BD
:1018F0000E94D70282EF8093E8008D8987FF39C06C
:101900009091E80090FFFCCF982F907609F034C1B9
:101910009E894F89588D2F89F88C911131C080385C
:1019200061F5809113028093F1001092F1008EEF27
:101930008093E8006C960FB6F894DEBF0FBECDBF63
:10194000DF91CF91FF91EF91BF91AF919F918F91D7
:101950007F916F915F914F913F912F911F910F91C7
:10196000FF90EF90DF90CF900F900FBE0F901F90E1
:1019700018959EEF9093E800C7CF1092F100D5CF55
:10198000913059F48111D3CF4130510581F68091C6
:1019900013028D7F80931302CACF933049F48111D3
:1019A000C6CF4130510519F6809113028260F2CF03
:1019B000953041F48091E80080FFFCCF20682093AF
:1019C000E300B5CF963009F0A9C00B8D1C8D22E045
:1019D0001092E90010920F0210920E02F2122EC025
:1019E00010920D0210920C020E94F8021F8299E0E0
:1019F0009983FA8291E09E8390EA98879AEF99877B
:101A000020910E0230910F02275F3F4F3C832B83C2
:101A10008D831092E90010920F0210920E02109323
:101A20000D0200930C0249E050E0BE016F5F7F4F52
:101A300080E00E94A0020E94F80279CF10930D026C
:101A400000930C020E94E402DC0112960D911C919D
:101A50000115110509F451C1D801ED91FC910480E3
:101A6000F581E02DBE016B5E7F4FC801099500979F
:101A700009F03EC1F80100851185EACFF3E0FF12BD
:101A80000EC08F89882309F440C0823061F440E899
:101A900062E189EA91E00E946D02811148CF81E202
:101AA0008093EB0047CF813029F440E868E080EA7A
:101AB00091E0F1CF833099F70E94E402DC011296A5
:101AC000ED90FC908E010F5F1F4F6801E114F1044F
:101AD00079F0D701ED91FC910680F781E02DB801F6
:101AE000C7010995080F111DF701E084F184EECFBD
:101AF000D8011C92F60101900020E9F73197BF014F
:101B00006C197D0940E0C601C6CF6AE871E0FB01AF
:101B1000449150E080E80E94A00209CF973009F478
:101B2000BECF983021F481E08093F10000CF99304E
:101B300009F0FDCE837009F0B2CFE1E0F1E081E081
:101B400031E096E32191222371F08093E9003093F4
:101B5000EB00DF0111972C912093EC009093ED00A6
:101B60008F5F873079F78EE78093EA001092EA0062
:101B70008F8980931C02DBCE8B8D9C8D1092E900A7
:101B800010920F0210920E0290930D0280930C029D
:101B9000898D811192C08E899D89913A49F4813253
:101BA00009F07DCF47E050E06BE071E080E0B3CF1B
:101BB000913209F074CF833269F48F89988DB0E047
:101BC000A0E08093070190930801A0930901B093CE
:101BD0000A01ADCE803269F48091E80082FFFCCF2B
:101BE00067E08BE091E00E94D7028BEF8093E800E2
:101BF0009ECE823209F09BCE8F8980931201EEEF48
:101C0000FFE7859194918B3F9C4D51F1E0E0F8E026
:101C100080910B0190910C01A0910D01B0910E01EA
:101C2000803B9440A105B105F1F48091120180FD43
:101C30001AC0EE3F8AE0F80789F587E797E79183B6
:101C40008083809160008093100288E19BE00FB652
:101C5000F894A895809360000FBE9093600067CEC3
:101C6000EEEFFAE0D5CF808191818737974709F071
:101C70005ECEA8958091600088618093600080911D
:101C8000100280936000EE3F2AE0F20789F0809115
:101C9000FE0A9091FF0A9183808349CE80819181D1
:101CA0008737980751F29093FF0A8093FE0AC5CFB9
:101CB0001092FF0A1092FE0A3ACE0E94E402DC0162
:101CC00012960D911C910115110509F4E8CED80169
:101CD000ED91FC910190F081E02DBE016B5E7F4F94
:101CE000C8010995811123CEF80100851185EBCF3C
:101CF000181619060CF41BCED2CEF1E0FF12BECEA0
:101D00006EE871E004CF1F920F920FB60F9211246C
:101D10002F933F938F939F93AF93BF938091F8013D
:101D20009091F901A091FA01B091FB013091F70176
:101D300023E0230F2D3758F50196A11DB11D2093E7
:101D4000F7018093F8019093F901A093FA01B09301
:101D5000FB018091FC019091FD01A091FE01B091E9
:101D6000FF010196A11DB11D8093FC019093FD011F
:101D7000A093FE01B093FF01BF91AF919F918F910E
:101D80003F912F910F900FBE0F901F90189526E84E
:101D9000230F0296A11DB11DD2CF1F920F920FB635
:101DA0000F9211242F933F934F935F936F937F93E1
:101DB0008F939F93AF93BF93EF93FF93E091330182
:101DC000F09134010995FF91EF91BF91AF919F91EF
:101DD0008F917F916F915F914F913F912F910F90D4
:101DE0000FBE0F901F9018951F920F920FB60F9273
:101DF00011242F933F934F935F936F937F938F9310
:101E00009F93AF93BF93EF93FF93E0913101F091D4
:101E100032010995FF91EF91BF91AF919F918F9101
:101E20007F916F915F914F913F912F910F900FBED6
:101E30000F901F9018951F920F920FB60F921124BA
:101E40002F933F934F935F936F937F938F939F93C2
:101E5000AF93BF93EF93FF93E0912F01F091300187
:101E60000995FF91EF91BF91AF919F918F917F91D4
:101E70006F915F914F913F912F910F900FBE0F90F7
:101E80001F9018951F920F920FB60F9211242F9347
:101E90003F934F935F936F937F938F939F93AF93F2
:101EA000BF93EF93FF93E0912D01F0912E010995DF
:101EB000FF91EF91BF91AF919F918F917F916F9122
:101EC0005F914F913F912F910F900FBE0F901F90F8
:101ED00018951F920F920FB60F9211242F933F93D4
:101EE0004F935F936F937F938F939F93AF93BF9322
:101EF000EF93FF93E0912B01F0912C010995FF9155
:101F0000EF91BF91AF919F918F917F916F915F9171
:101F10004F913F912F910F900FBE0F901F901895EA
:101F2000EF92FF920F931F93CF93DF93CDB7DEB75E
:101F3000C659D1090FB6F894DEBF0FBECDBF1092BF
:101F40009E0210929D0288EE93E0A0E0B0E08093A4
:101F50009F029093A002A093A102B093A20283E9F2
:101F600091E090939C0280939B028FEF9FEF909360
:101F7000A8028093A702109215031092140381EB1C
:101F800091E0909313038093120380910A038111CF
:101F900013C0109205031092040386E292E090931E
:101FA0000703809306038FE290E0909309038093E8
:101FB000080381E080930A038091FC0281112CC008
:101FC00011E01093EF021093F00285EF92E09093EE
:101FD000F2028093F1021092F4021092F30285EA69
:101FE00091E09093EC028093EB021092F702109232
:101FF000F6021092F9021092F8021093FA0210936E
:10200000FB0281EC8093F5020E94E4026BEE72E029
:102010000E9429031093FC02E091F602F091F7026E
:10202000309709F050C184E093E09093F7028093D9
:10203000F6028091F8029091F90220910803309104
:102040000903820F931F9093F9028093F802109274
:1020500039031092380310923C03109241031092FE
:1020600040038FEF93E090934303809342031092D9
:1020700045031092440390934703809346031092C4
:1020800049031092480390934B0380934A031092A4
:102090004D0310924C0390934F0380934E03109284
:1020A0005103109250039093530380935203109264
:1020B0005503109254039093570380935603109244
:1020C00059031092580390935B0380935A03109224
:1020D0005D0310925C0390935F0380935E03109204
:1020E00061031092600390936303809362031092E4
:1020F00065031092640390936703809366031092C4
:1021000069031092680390936B0380936A0393E0D2
:1021100090936C032CE020933B0310923D031092AC
:102120003E0310923F0335E0398381E08A8349E022
:102130004B833C8351EA5D838E8355E85F839887A8
:1021400039874A8739E13B878C8739E23D872E877B
:1021500035E13F87188A35E2398B8A8B45E74B8B0F
:102160008C8B35E93D8B2E8B25E52F8B188E25E644
:10217000298F1A8E21E82B8F52E05C8F4D8F8E8F26
:102180003F8F84E088A329A39AA380EC8BA383E2EA
:1021900090E00E94AA157C0183E2FE013196D701EE
:1021A00001900D928A95E1F787E090E00E94AA15D0
:1021B0008C01DC0111961C921E921396FC92EE92F9
:1021C000129783E290E015969C938E93149716963F
:1021D0001C920E946407FC01A385B485109709F046
:1021E0007CC01487038785859685D80114962D9128
:1021F0003C91820F931F9687858790913B03892F8F
:10220000869586958695977009F06FC080933C03FC
:1022100010913C03812F90E00E94AA1590933903FE
:102220008093380381E090913D03911101C080E0DB
:10223000810F80936D0310921F0310921E03109262
:102240002103109220031092230310922203109274
:102250002503109224031092270310922603109254
:1022600029031092280310922B0310922A03109234
:102270002D0310922C0310922F0310922E03109214
:1022800031031092300310923303109232038FEF18
:102290009FEF90933503809334039093370380939B
:1022A000360390E080E020913C0328171906F9F0EE
:1022B000F4F0E0913803F0913903E80FF91F108230
:1022C0000196F1CFFC01808191810097D9F784E0DC
:1022D00093E091838083ADCEDC018D919C91119729
:1022E0000097D1F70D931C937ECF8F5F8FCFCA5687
:1022F000DF4F0FB6F894DEBF0FBECDBFDF91CF9199
:102300001F910F91FF90EF900895CF93DF9300D02E
:102310001F92CDB7DEB7789484B5826084BD84B552
:10232000816084BD85B5826085BD85B5816085BDD0
:1023300080916E00816080936E0010928100809188
:102340008100826080938100809181008160809310
:102350008100809180008160809380008091910055
:1023600082608093910080919100816080939100C0
:10237000809190008160809390008091C100846082
:102380008093C1008091C10082608093C1008091E0
:10239000C10081608093C1008091C30081608093FF
:1023A000C3008091C00082608093C0008091C20011
:1023B00081608093C20080917A00846080937A006B
:1023C00080917A00826080937A0080917A008160A7
:1023D00080937A0080917A00806880937A001092CE
:1023E0001C0210921302109212028091D700816099
:1023F0008093D70080EA8093D80089B5806189BD39
:1024000089B5826089BD09B400FEFDCF61E070E04E
:1024100080E090E00E9462058091D8008F7C80610E
:102420008093D8008091E000807F8093E0008091CD
:10243000E1008E7E8093E1008DE08093E200559A6A
:10244000209A0E9419098091190290911A0200970E
:1024500009F047C08FEF9FEF9093A8028093A702E7
:10246000812C912C540183940EE3602E02E0702E97
:10247000E0901902F0901A02E114F10409F084C00E
:10248000D12CC12C22242394312C44244A94542C42
:102490008BE992E00E94D903C816D906E4F58BE9CE
:1024A00092E00E9497038C010E94990B093111055B
:1024B0000CF50A501109000F111FF801ED5EFE4FD7
:1024C0005182408209581E4FF801108161E0812F2E
:1024D0000E948F04812F0E943F04FFEFCF1ADF0A72
:1024E000D7CF029709F0BCCF81E080933A030E94D6
:1024F000010AB6CF0E511109000F111FF801ED5E50
:10250000FE4F3182208209581E4F60E0F801808121
:102510000E948F04E2CF73E1272E71E0372EE7E7A8
:102520004E2EE1E05E2EF101C190D1901F01D7FC4B
:1025300016C0F20180810E9466048C01C816D9067B
:1025400051F0F701892BE9F0ED5AFE4F60818BE9DC
:1025500092E00E947103F101329711830083FFEF33
:10256000EF1AFF0A22E0420E511C3CE0E316F10490
:10257000D1F680E090E0892B09F47ACF0E94000028
:1025800073CFE95BFE4FE2CF41E0E416F10481F541
:102590000E94CC0B63E1462E61E0562E10E000E075
:1025A000F201C190D1902F01D7FC19C0F801E95870
:1025B000FE4F80810E9466047C01C816D90659F03E
:1025C000F801E15AFE4F608182E193E0E114F104E9
:1025D00061F00E945708F2013297F182E0820E5FAB
:1025E0001F4F08311105E1F6C4CF0E949708F3CFC1
:1025F000F2E0EF16F10409F068C00E94CC0B43E151
:10260000442E41E0542E57E7C52E51E0D52E312CF3
:10261000F201E190F1902F01F7FC33C0F6018081C7
:102620000E9466048C01E816F90639F180913B039B
:102630000115110571F1381600F58091380390915C
:102640003903E32DE695E695E695E80FF92FF11DA0
:10265000832D8770A501940104C0220F331F441FEE
:10266000551F8A95D2F7922F909580818923808378
:1026700080913A0381110E94010AF201329711837D
:102680000083339432E0C30ED11C4CE03412C0CF2F
:1026900070CF381690F78091380390913903E32D6D
:1026A000E695E695E695E80FF92FF11D832D8770E5
:1026B000A501940104C0220F331F441F551F8A95A2
:1026C000D2F7C9012081822BD2CF53E0E516F10465
:1026D00009F04FCF10E000E0DD24D39492E0C92E42
:1026E0002EE7522E3FE7432E8BE992E00E94D9035A
:1026F000081719070CF03DCF8BE992E00E94970371
:1027000083339105D9F58FEC91E00E946409D09252
:1027100018028FE799E00E943202809118028130FE
:1027200029F5CE0101960E948401892B31F469813B
:102730008BE992E00E947103F4CF312C8BE992E097
:102740000E94D9033816190644F78BE992E00E94DB
:1027500097037C0183ED91E00E94640982E3E8160F
:10276000F10411F4109218023394E8CFEB987092B0
:102770003201609231010F5F1F4FB6CF8433910554
:1027800009F04FC1C092180210921702109216025F
:1027900068E28BE992E00E947103809116029091A9
:1027A0001702F12C889754F58BE992E00E94D90327
:1027B000F816190694F78BE992E00E949703898333
:1027C000CE0101960E945601892BB1F4898180FFC8
:1027D00011C08091160290911702019690931702F2
:1027E0008093160260911602709117028BE992E0B5
:1027F0000E947103F394D8CF60E0F8CFE12C8BE90D
:1028000092E00E94D903F816190624F0E1100CC0DA
:10281000F12CF5CF8BE992E00E949703843311F4F9
:10282000EE24E394F394EBCF80911502882371F1A9
:1028300060E082E10E948F0485ED91E00E946409CE
:1028400082E10E946604892BD9F782E10E94660426
:10285000892BD9F361E082E10E948F0482E10E941A
:102860003F0468EC70E080E090E00E94620587E041
:102870000E946604892BD9F364E670E080E090E062
:102880000E9462058DEC91E00E94640980EC94E066
:102890000E94320280911402882309F480C087EDDF
:1028A00091E00E94710980911602909117020B9796
:1028B0003CF180911602909117028897A4F7F12CB1
:1028C0008BE992E00E94D903F816190664F78BE9A8
:1028D00092E00E9497038983CE0101960E945601DF
:1028E000892B61F4898180FF09C080911602909143
:1028F000170201969093170280931602F394E0CF8B
:10290000EB98709232016092310180E5E82EF12C53
:10291000CE0103960E945601E1E0EE1AF108C1F7DC
:102920005A8249828091160290911702889794F4F6
:10293000CE0102960E945601CE0101960E945601D8
:10294000809116029091170201969093170280933E
:102950001602E8CF60911602709117028BE992E09F
:102960000E94710364EF71E080E090E00E946205D4
:1029700061E082E10E948F0482E10E943F04109294
:10298000140289ED91E00E94640964EF71E080E037
:1029900090E00E94620580EC94E00E9432028BED90
:1029A00091E00E9464098091160290911702181616
:1029B00019066CF5809116029091170288979CF782
:1029C000F12C8BE992E00E94D903F81619065CF706
:1029D0008BE992E00E9497038983CE0101960E94C1
:1029E0005601892B71F4898180FF09C080911602FC
:1029F0009091170201969093170280931602F39418
:102A0000E0CF60E08BE992E00E947103F8CFEB9891
:102A10007092320160923101109218020E941909DD
:102A2000AACE8C33910529F4D0921502D0921402CB
:102A3000A2CECD9709F09FCE1092150210921402EB
:102A40009ACE052E97FB1EF400940E94381557FD70
:102A500007D00E944B1507FC03D04EF40C94381598
:102A600050954095309521953F4F4F4F5F4F0895BA
:102A700090958095709561957F4F8F4F9F4F0895EA
:102A80000E946D15A59F900DB49F900DA49F800D81
:102A9000911D11240895A1E21A2EAA1BBB1BFD0152
:102AA0000DC0AA1FBB1FEE1FFF1FA217B307E4072D
:102AB000F50720F0A21BB30BE40BF50B661F771F85
:102AC000881F991F1A9469F7609570958095909565
:102AD0009B01AC01BD01CF010895A29FB001B39F3E
:102AE000C001A39F700D811D1124911DB29F700D17
:102AF000811D1124911D0895AA1BBB1B51E107C024
:102B0000AA1FBB1FA617B70710F0A61BB70B881F7D
:102B1000991F5A95A9F780959095BC01CD0108950C
:102B200097FB072E16F4009407D077FD09D00E947A
:102B30007C1507FC05D03EF4909581959F4F089534
:102B4000709561957F4F0895EE0FFF1F0590F491EA
:102B5000E02D09940F931F93CF93DF93823091055B
:102B600010F482E090E0E0917003F091710330E0A6
:102B700020E0B0E0A0E0309799F42115310509F488
:102B80004AC0281B390B24303105D8F58A819B8136
:102B90006115710589F1FB0193838283FE0111C0E8
:102BA000408151810281138148175907E0F048178D
:102BB000590799F4109761F012960C931297139697
:102BC0001C933296CF01DF91CF911F910F91089501
:102BD0000093700310937103F4CF2115310551F068
:102BE0004217530738F0A901DB019A01BD01DF014B
:102BF000F801C1CFEF01F9CF909371038093700377
:102C0000CDCFFE01E20FF31F819391932250310942
:102C100039832883D7CF20916E0330916F03232B04
:102C200041F4209137013091380130936F032093A4
:102C30006E0320913501309136012115310541F4A3
:102C40002DB73EB74091390150913A01241B350B05
:102C5000E0916E03F0916F03E217F307A0F42E1BCF
:102C60003F0B2817390778F0AC014E5F5F4F2417F0
:102C7000350748F04E0F5F1F50936F0340936E036C
:102C8000819391939FCFF0E0E0E09CCFCF93DF93CF
:102C90000097E9F0FC01329713821282A091700331
:102CA000B0917103ED0130E020E01097A1F4208194
:102CB0003181820F931F20916E0330916F0328178B
:102CC000390709F061C0F0936F03E0936E03DF9161
:102CD000CF910895EA01CE17DF07E8F54A815B81BD
:102CE0009E0141155105B1F7E901FB83EA83499142
:102CF0005991C40FD51FEC17FD0761F480819181B4
:102D00000296840F951FE9019983888382819381BC
:102D10009B838A83F0E0E0E012968D919C9113975B
:102D20000097B9F52D913C911197CD010296820F34
:102D3000931F20916E0330916F032817390739F6DE
:102D4000309751F51092710310927003B0936F0396
:102D5000A0936E03BCCFD383C28340815181840F83
:102D6000951FC817D90761F44E5F5F4F888199811D
:102D7000480F591F518340838A819B8193838283AB
:102D80002115310509F0B0CFF0937103E093700382
:102D90009ECFFD01DC01C0CF13821282D7CFFB0191
:102DA000DC0102C001900D9241505040D8F70895C7
:042DB000F894FFCFC5
:102DB40000C18081000000FFFFFFFF00E100000070
:102DC40000000001000100010001000100010001F8
:102DD40000010001000100010001003E023E023E2C
:102DE400023E023E0200007203800000000000B4B4
:102DF400061907DB06C0060A0B0C0D0E0F10111284
:102E04001314151E1F202122232425262728296177
:102E140000620078007900D800D700DA00D9006C8D
:102E2400007200B300B0001000090007000800059C
:102E34000003000400060002000E000F000A000058
:102E44000000007103830692038703D9039703B537
:102E540003000000009907E007A507C00600000072
:102E640000FF082B08160915090D0A004572726F38
:102E7400722077697468207175657565005A00540D
:0E2E840041530059004700580043004600002B
:1070000055C000006EC000006CC000006AC00000E7
:1070100068C0000066C0000064C0000062C00000DC
:1070200060C000005EC00000FCC400005AC0000048
:1070300058C0000056C0000054C0000052C00000FC
:1070400050C000005DC000004CC000004AC00000FD
:1070500048C0000046C0000044C0000042C000001C
:1070600040C000003EC000003CC000003AC000002C
:1070700038C0000036C0000034C0000032C000003C
:1070800030C000002EC000002CC000002AC000004C
:1070900028C0000026C0000024C0000022C000005C
:1070A00020C000001EC000001CC0000011241FBE34
:1070B000CFEFDAE0DEBFCDBF11E0A0E0B1E0E6E463
:1070C000FFE702C005900D92A43BB107D9F711E08C
:1070D000A4EBB1E001C01D92AD3CB107E1F74FD385
:1070E00030C78ECFF89410926F001092810081E02B
:1070F00085BF15BE47985D9A289A0C9400000895A4
:107100001F920F920FB60F9211242F938F939F937C
:10711000EF93FF9310928500109284008091B40148
:107120009091B501009741F001979093B50180933C
:10713000B401892B09F45D9A8091B6019091B70151
:10714000009741F001979093B7018093B601892B86
:1071500009F4289A8091BA019091BB01019690930D
:10716000BB018093BA01E0E0F0E0859194918F5FDC
:107170009F4F49F08091B8019091B9010196909389
:10718000B9018093B801FF91EF919F918F912F9159
:107190000F900FBE0F901F90189584E08093E90028
:1071A0000DC08091E8008B778093E80003C08EB318
:1071B000882351F08091E80082FFF9CF8091E800A8
:1071C00085FFEFCF8091F1000895982F83E08093A1
:1071D000E9008091E80085FD0DC08091E8008E7780
:1071E0008093E80003C08EB3882369F08091E800A3
:1071F00080FFF9CF9093F1005D9884E690E0909342
:10720000B5018093B40108954F925F926F927F927F
:107210008F929F92AF92BF92CF92DF92EF92FF92A6
:107220000F931F93CF93DF9384E08093E9008091C5
:10723000E80082FF57C2289884E690E09093B70157
:107240008093B601AADF182F853481F48CE49DE188
:107250009093B9018093B80107B600FCFDCFF9996E
:10726000FECF81E180935700E89503C0843519F47F
:1072700094DF8DE00DC28C34E1F38035D1F3843797
:1072800021F484E4A2DF80E003C2813611F489E5B1
:10729000FFC18134B1F481DF182F7FDF90E0880FC8
:1072A000991FAA2797FDA095BA2F312F330F20E001
:1072B000442737FD4095542F822B932BA42BB52BBD
:1072C000B8C1803711F483E5E3C1833549F4C0E0E8
:1072D000D1E089917ADF21E0C730D207D1F7D9C157
:1072E000863521F481E371DF80E3D2C1833731F445
:1072F00087E86BDF85E969DF8EE1CAC18536B9F4BD
:10730000E0E0F0E093E085E090935700E89507B661
:1073100000FCFDCF80935700E89507B600FCFDCF39
:10732000E058FF4FA0E7E030FA0771F7A2CF8237AD
:1073300039F4E1E0F0E089E0809357008491A8C13E
:10734000863439F4E0E0F0E089E0809357008491DE
:107350009FC18E3439F4E3E0F0E089E08093570078
:10736000849196C1813539F4E2E0F0E089E08093C0
:10737000570084918DC1823631F489E526DF80E0A3
:1073800024DF80E885C1823419F0873609F0E5C032
:107390001092B9011092B80100DF082FFEDEF82E1E
:1073A000FCDE682E8554823008F071C1902F80E099
:1073B000CF2DD0E0C82BD92B10926F00173609F0D3
:1073C0004BC081E180935700E895DD24CC24C39421
:1073D0003FC0E090BD01F090BE010091BF0110914F
:1073E000C001B6E46B16D9F4ED2DF0E0EE29FF29CB
:1073F000E4918E2FEADEDD2081F082E090E0A0E0D3
:10740000B0E0E80EF91E0A1F1B1FE092BD01F092CA
:10741000BE010093BF011093C001DC2418C0D80145
:10742000C701B695A7959795879575D5CEDE82E06D
:1074300090E0A0E0B0E0E80EF91E0A1F1B1FE092EA
:10744000BD01F092BE010093BF011093C0012197CE
:10745000209709F0BECF7DC08090BD019090BE0105
:10746000A090BF01B090C00196E4691609F05DC01C
:1074700083E0F40180935700E89507B600FCFDCF48
:1074800054C0F6E46F1661F5772031F1E090BD014C
:10749000F090BE010091BF011091C0017EDED82E98
:1074A000CC24852D90E08C299D29F7010C01409278
:1074B0005700E895112482E090E0A0E0B0E0E80EEB
:1074C000F91E0A1F1B1FE092BD01F092BE0100933E
:1074D000BF011093C00102C060DE582E742423C087
:1074E000E090BD01F090BE010091BF011091C0017C
:1074F00016950795F794E79450DE682FC70113D5CA
:107500008091BD019091BE01A091BF01B091C001D9
:107510000296A11DB11D8093BD019093BE01A09361
:10752000BF01B093C001219704C05524772444249F
:107530004394209709F0A5CF96E4691641F485E0BD
:10754000F40180935700E89507B600FCFDCF8DE06D
:107550003CDE82E080936F009CC0833471F4009124
:10756000BD011091BE0119DE90E021E0F8010C018F
:1075700020935700E89511247CCE833619F5E090CE
:10758000BD01F090BE010091BF011091C00105DE68
:10759000F701E16090E021E00C0120935700E895AD
:1075A000112482E090E0A0E0B0E0E80EF91E0A1F8E
:1075B0001B1FE092BD01F092BE010093BF0110932A
:1075C000C00157CE8D3661F4E091BD01F091BE014E
:1075D00085E080935700E89507B600FCFDCF49CEC3
:1075E000823551F4E091BD01F091BE0105911491F5
:1075F000812FEBDD802F4CC0843421F5E090BD015C
:10760000F090BE010091BF011091C0011695079541
:10761000F794E794C2DD682FC70185D48091BD013E
:107620009091BE01A091BF01B091C0010296A11D31
:10763000B11D8093BD019093BE01A093BF01B09393
:10764000C00117CE843609F5E090BD01F090BE016F
:107650000091BF011091C001D801C701B695A7954F
:107660009795879558D4B1DD82E090E0A0E0B0E036
:10767000E80EF91E0A1F1B1FE092BD01F092BE0129
:107680000093BF011093C00104C08B3111F08FE350
:107690009CDD83E08093E9009091E8008091E80010
:1076A0008E778093E80095FF04C010C08EB38823C6
:1076B000C9F08091E80080FFF9CF8091E8008E77D3
:1076C0008093E80003C08EB3882361F08091E800C6
:1076D00080FFF9CF84E08093E9008091E8008B7708
:1076E0008093E800DF91CF911F910F91FF90EF9071
:1076F000DF90CF90BF90AF909F908F907F906F90D2
:107700005F904F9008959091C501892F8F778132B6
:1077100049F58091C6018032A1F0813219F5913A84
:1077200009F58091E800877F8093E8008CE091E084
:1077300067E070E027D28091E8008B778093E800C3
:107740000895913279F48091E800877F8093E80072
:107750008CE091E067E070E079D28091E8008E776C
:107760008093E800089582E061EC42E0D1D083E0AC
:1077700061E842E1CDD084E060E842E1C9C01F93F6
:10778000209100081092000844B714BE88E10FB69B
:10779000F89480936000109260000FBE80E8E0E0F3
:1077A000F0E00FB6F89480936100E09361000FBEA3
:1077B00031E035BF92E095BF3F9A209A559A809369
:1077C00061001092610047985D9A289A1092890092
:1077D0008AEF8093880090936F0083E0809381000C
:1077E000859194918F5F9F4F11F03093BC01942F3E
:1077F00041FF19C0809109012817A9F08093000862
:10780000789480911301882339F08091BA01909186
:10781000BB018F5E9240C8F3F8941092000881E09B
:10782000809313010CC090FF04C08091BC01882399
:1078300051F493FF09C080910901281729F0809124
:10784000BC01882309F04EDCD4D078941092B901A1
:107850001092B8011EEF20C0D7DC4BD38091B80145
:107860009091B90181549F4110F0109213018091C1
:10787000C1019091C20101969093C2018093C10110
:10788000292F97FF03C0512F591B252F220F28178F
:1078900010F4479801C0479A809113018823E1F6BC
:1078A0008091E00081608093E0001CDC80E090E04B
:1078B0001F910895FA01923049F0933061F09130B0
:1078C000F9F484E191E022E130E01EC086E291E02B
:1078D0002EE330E019C0882329F484E691E024E007
:1078E00030E012C0813029F488E691E02EE130E0EA
:1078F0000BC0823029F488E891E02AE230E004C02D
:1079000080E090E020E030E091838083C901089519
:107910008093E9008091EB0081608093EB001092EE
:10792000ED006093EC004093ED008091EE00881F25
:107930008827881F08958091C50188238CF403C08F
:107940008EB38823B1F08091E80082FFF9CF809157
:10795000E8008B778093E80008958EB3882349F080
:107960008091E80080FFF9CF8091E8008E778093C6
:10797000E8000895EF92FF920F931F9345D04CD0EB
:1079800008ED10E0F80180818F7780838081806826
:10799000808380818F7D808319BC1EBA1092C301C1
:1079A00080EEE82EF12CF70180818B7F8083F80137
:1079B00080818160808380E060E042E0A9DFE1EEC9
:1079C000F0E080818E7F8083E2EEF0E08081816054
:1079D0008083808188608083F70180818E7F8083AF
:1079E000F8018081806180831F910F91FF90EF905B
:1079F0000895E7EDF0E08081816080838AE482BFB2
:107A000081E08093C401B6CFE8EDF0E080818E7F05
:107A100080831092E20008951092DA001092E10043
:107A200008951F920F920FB60F9211242F933F9338
:107A30004F935F936F937F938F939F93AF93BF9376
:107A4000EF93FF938091DA0080FF1BC08091D800F4
:107A500080FF17C08091DA008E7F8093DA008091DA
:107A6000D90080FF0BC080E189BD82E189BD09B4E6
:107A700000FEFDCF81E08EBB3BD203C019BC1EBA15
:107A800037D28091E10080FF17C08091E20080FF33
:107A900013C08091E2008E7F8093E2008091E2002B
:107AA00080618093E2008091D80080628093D8004A
:107AB00019BC85E08EBB1CD28091E10084FF2CC0F4
:107AC0008091E20084FF28C080E189BD82E189BD08
:107AD00009B400FEFDCF8091D8008F7D8093D8003F
:107AE0008091E1008F7E8093E1008091E2008F7EA3
:107AF0008093E2008091E20081608093E2008091B7
:107B0000C301882331F48091E30087FD02C081E046
:107B100001C084E08EBBECD18091E10083FF21C0E5
:107B20008091E20083FF1DC08091E100877F8093F8
:107B3000E10082E08EBB1092C3018091E1008E7F54
:107B40008093E1008091E2008E7F8093E20080913B
:107B5000E20080618093E20080E060E042E0D8DEF5
:107B6000C7D1FF91EF91BF91AF919F918F917F917D
:107B70006F915F914F913F912F910F900FBE0F909A
:107B80001F9018959C014091CB015091CC01461754
:107B9000570718F4F90190E044C06115710511F020
:107BA000AB01F8CF8091E8008E778093E80040E049
:107BB00050E0F0CF8EB3882309F444C0853009F437
:107BC00043C08091E80083FF02C081E00895809166
:107BD000E80082FD31C08091E80080FF22C08091E2
:107BE000F3009091F200782F60E0292F30E0262BEF
:107BF000372B07C081918093F100415050402F5F97
:107C00003F4F4115510519F02830310598F390E0A8
:107C10002830310509F491E08091E8008E77809357
:107C2000E8004115510531F6992321F605C08EB3C0
:107C3000882341F0853041F08091E80082FFF7CF42
:107C400080E0089582E0089583E008959C01611525
:107C5000710529F48091E8008B778093E800F901A1
:107C600026C08EB3882391F1853091F18091E80090
:107C700083FF02C081E008958091E80082FFF1CF88
:107C800006C08091F10081936150704059F02091BD
:107C9000F3008091F200322F20E090E0822B932BB2
:107CA000892B79F78091E8008B778093E800611544
:107CB0007105B9F605C08EB3882341F0853041F0D7
:107CC0008091E80080FFF7CF80E0089582E008957A
:107CD00083E008950F931F93DF93CF9300D0CDB728
:107CE000DEB7E5ECF1E08091F100819381E0ED3CBD
:107CF000F807C9F708DD8091E80083FFE4C08091B0
:107D0000C5019091C601953009F46DC0963040F4DC
:107D1000913081F1913070F0933009F0D4C02AC0D5
:107D2000983009F4A3C0993009F4B2C0963009F034
:107D3000CAC07CC0803809F4C6C0823809F0C3C00C
:107D40008091C90187708093E9008091EB001092C7
:107D5000E9002091E800277F2093E80090E025E0EB
:107D6000969587952A95E1F781708093F10010929E
:107D7000F10087C0882319F0823009F0A4C08F7108
:107D8000823009F0A0C08091C701882331F520918D
:107D9000C901277009F497C02093E9008091EB0096
:107DA00080FF1BC0933021F48091EB00806213C0F0
:107DB0008091EB0080618093EB0081E090E002C055
:107DC000880F991F2A95E2F78093EA001092EA0043
:107DD0008091EB0088608093EB001092E900809125
:107DE000E800877F51C0882309F06DC01091C7015A
:107DF0001F770FB7F8948091E800877F8093E800A1
:107E00009ADD8091E80080FFFCCF8091E3008078CC
:107E1000812B8093E30080688093E300112311F4A9
:107E200082E001C083E08EBB0FBF4DC0805882301E
:107E300008F049C08091C7019091C8016091C901C3
:107E4000AE014F5F5F4F36DDBC01009709F43BC0C8
:107E50008091E800877F8093E80089819A8192DE93
:107E60008091E8008B778093E8002DC0803859F529
:107E70008091E800877F8093E8008091C301809320
:107E8000F1008091E8008E778093E80054DD1BC0FC
:107E90008823C9F49091C7019230A8F48091E8003A
:107EA000877F8093E8009093C30145DD8091C301F3
:107EB000882331F48091E30087FD02C081E001C096
:107EC00084E08EBB50DC8091E80083FF0AC0809183
:107ED000EB0080628093EB008091E800877F8093C5
:107EE000E8000F900F90CF91DF911F910F910895AF
:107EF00008951F938EB3882361F01091E9001092CA
:107F0000E9008091E80083FF01C0E4DE1770109360
:107F1000E9001F910895F999FECF92BD81BDF89AAD
:107F2000992780B50895262FF999FECF1FBA92BDE3
:107F300081BD20BD0FB6F894FA9AF99A0FBE01964A
:067F40000895F894FFCF44
:107F46004341544552494E41007700080000000065
:107F56000000080112011001020000084F1B0592E3
:107F660001000201000109023E00020100803209FF
:107F7600040000010202010005240010010424028D
:107F8600040524060001070582030800FF09040111
:107F960000020A000000070504021000010705831D
:107FA60002100001040309041E03500072006F0052
:107FB60020004D006900630072006F00200035004C
:107FC60056002000200000002A03530070006100C4
:107FD60072006B00460075006E00200045006C00C4
:107FE60065006300740072006F006E006900630034
:047FF6007300000014
:040000030000700089
:00000001FF
